011070302P9998011.0.0     966400000000012345670123456700000000032018062020180930100         20181002              EUR                                                                                                                                                                                                 
0200000000000195713617112340123456789     128        2000010111Piet                               0                                   J     11234AB         00099      NL128                                                                                                                                          
0400000000000295713617112340123456789                    1201809120124000  0001O00000000000000000000000125110    000        00005193098000000000000000000000000010000400000004000D000000004000D752                                                                                                                    
99000001000000000001000000000000200000004000D                                                                                                                                                                                                                                                                         
