011070302P0126011.57      96640000000005193098050986150000000003201812012018123149          20190108              EUR                                                                                                                                                                                                 
020000000000014416039199664453732607      128        2013011911Welie                              0                                   CC    12497NA         00022      NL128                                                                                                                                          
040000000000024416039199664453732607                     1201812070124000  0001O00000000000000000000000125110    000        00005193098000000000000000000000000010000400000004000D000000004000D939                                                                                                                    
0200000000000366388025796647527935        134        2015083111Meulen                   vander    0                                   BG    12628ED         00005      NL134                                                                                                                                          
0400000000000466388025796647527935                       1201812030124000  0001O00000000000000000000000123140    000        00005193098000000000000000000000000010000400000004000D000000004000D926                                                                                                                    
0400000000000566388025796647527935                       1201812050124000  0001O00000000000000000000000123140    000        00005193098000000000000000000000000010000400000004000D000000004000D932                                                                                                                    
020000000000063163172269664465429440      136        2013083011Pace                               0                                   WP    12611GV         00048b     NL136                                                                                                                                          
040000000000073163172269664465429440                     1201812070124000  0001O00000000000000000000000125140    000        00005193098000000000000000000000000010000400000004000D000000004000D940                                                                                                                    
0200000000000825726826196645983395        139        2005061221Koning                   de        0                                   L     12628SR         00031      NL139                                                                                                                                          
0400000000000925726826196645983395                       1201812070124000  0001O00000000000000000000000128130    000        00005193098000000000000000000000000010000400000004000D000000004000D942                                                                                                                    
99000004000000000005000000000000900000020000D                                                                                                                                                                                                                                                                         
