011070302P0126011.62      70290000000005193098050986150000000003201912012019121576          20191215              EUR                                                                                                                                                                                                 
020000000000015016257197029204672724      116        2009090921Allee                              0                                   TARS  12614SH         00101      NL116                                                                                                                                          
040000000000025016257197029204672724                     1201912050124000  0001O00000000000000000000000128130    000        00005193098000000000000000000000000010000400000004000D000000004000D1764                                                                                                                   
020000000000035753314107029205014089      123        2010092111Jacobsen                           0                                   CS    12498EL         00008      NL123                                                                                                                                          
040000000000045753314107029205014089                     1201912020124000  0001O00000000000000000000000123130    000        00005193098000000000000000000000000010000400000004000D000000004000D1750                                                                                                                   
020000000000056707175517029205637701      125        2013080221IglesiaAlonso            dela      0                                   LSY   12612PH         00008      NL125                                                                                                                                          
040000000000066707175517029205637701                     1201912040124000  0001O00000000000000000000000123110    000        00005193098000000000000000000000000010000400000004000D000000004000D1752                                                                                                                   
020000000000072903309197029205484484      140        2012111911Gorissen                           0                                   B     12612KP         00191      NL140                                                                                                                                          
040000000000082903309197029205484484                     1201912050124000  0001O00000000000000000000000125110    000        00005193098000000000000000000000000010000400000004000D000000004000D1763                                                                                                                   
020000000000090350622287029200841297      151        1931112611Bokma                              0                                   P     12628HS         00002      NL151                                                                                                                                          
040000000000100350622287029200841297                     1201912050124000  0001O00000000000000000000000125280    000        00005193098000000000000000000000000010000400000004000D000000004000D1760                                                                                                                   
020000000000114138939847029206837429      152        2015071411Marks                              0                                   MAE   12628XX         00028      NL152                                                                                                                                          
040000000000124138939847029206837429                     1201912040124000  0001O00000000000000000000000123140    000        00005193098000000000000000000000000010000400000004000D000000004000D1756                                                                                                                   
020000000000135662485177029204637252      153        2009042511Marks                              0                                   NMEN  12628XX         00028      NL153                                                                                                                                          
040000000000145662485177029204637252                     1201912060124000  0001O00000000000000000000000123140    000        00005193098000000000000000000000000010000400000004000D000000004000D1768                                                                                                                   
020000000000154496030647029205380468      154        2012020811Keuken                             0                                   AE    12611KM         00073      NL154                                                                                                                                          
040000000000164496030647029205380468                     1201912050124000  0001O00000000000000000000000123140    000        00005193098000000000000000000000000010000400000004000D000000004000D1761                                                                                                                   
020000000000171797481307029101173393      157        1971021311Kooij                    vander    0                                   JAC   12628HE         00066      NL157                                                                                                                                          
040000000000181797481307029101173393                     1201912020124000  0001O00000000000000000000000129220    000        00005193098000000000000000000000000010000400000004000D000000004000D1744                                                                                                                   
040000000000191797481307029101173393                     1201912040124000  0001O00000000000000000000000129220    000        00005193098000000000000000000000000010000400000004000D000000004000D1757                                                                                                                   
020000000000204225047747029206813422      161        2015050911Cadeau                             0                                   RIR   12614XT         00274      NL161                                                                                                                                          
040000000000214225047747029206813422                     1201912040124000  0001O00000000000000000000000123140    000        00005193098000000000000000000000000010000400000004000D000000004000D1753                                                                                                                   
020000000000224534643487029204896290      162        2010040421Cadeau                             0                                   ICM   12614XT         00274      NL162                                                                                                                                          
040000000000234534643487029204896290                     1201912040124000  0001O00000000000000000000000123100    000        00005193098000000000000000000000000010000400000004000D000000004000D1754                                                                                                                   
020000000000243940807257029208064664      170        2017051611Hoevenaar                          0                                   VE    12624AS         00075      NL170                                                                                                                                          
040000000000253940807257029208064664                     1201912050124000  0001O00000000000000000000000123110    000        00005193098000000000000000000000000010000400000004000D000000004000D1762                                                                                                                   
020000000000260967449967029100269583      171        1957020721Mannetje                 t         2Lacrum                             WM    32612RH         00074      NL171                                                                                                                                          
040000000000270967449967029100269583                     1201912020124000  0001O00000000000000000000000122110    000        00005193098000000000000000000000000010000400000004000D000000004000D1747                                                                                                                   
040000000000280967449967029100269583                     1201912040124000  0001O00000000000000000000000122110    000        00005193098000000000000000000000000010000400000004000D000000004000D1751                                                                                                                   
040000000000290967449967029100269583                     1201912060124000  0001O00000000000000000000000122110    000        00005193098000000000000000000000000010000400000004000D000000004000D1765                                                                                                                   
99000013000000000016000000000002900000064000D                                                                                                                                                                                                                                                                         
